S012000046696E616C205461736B2E7372656375
S113000012C021C020C01FC01EC01DC01CC01BC008
S11300101AC034C118C017C016C015C014C013C00C
S113002012C011C010C011241FBECFE5D4E0DEBF42
S1130030CDBF20E0A0E6B0E001C01D92A436B20717
S1130040E1F7AAD148C2DCCF41113CC0823411F09F
S1130050823681F427B381E090E002C0880F991FB3
S11300606A95E2F7982F9095922397BB98B3892BC2
S113007088BB0895833411F0833681F424B381E07E
S113008090E002C0880F991F6A95E2F7982F909527
S1130090922394BB95B3892B85BB0895843411F0C6
S11300A08436F1F521B381E090E002C0880F991FF6
S11300B06A95E2F7982F9095922391BB92B3892B7E
S11300C082BB0895413061F5823411F0823659F4CF
S11300D027B381E090E002C0880F991F6A95E2F788
S11300E0822B87BB0895833411F0833659F424B3EB
S11300F081E090E002C0880F991F6A95E2F7822B95
S113010084BB0895843411F0843651F421B381E022
S113011090E002C0880F991F6A95E2F7822B81BB99
S11301200895411130C0823411F0823661F428B34D
S113013081E090E002C0880F991F6A95E2F78095EC
S1130140822388BB0895833411F0833661F425B388
S113015081E090E002C0880F991F6A95E2F78095CC
S1130160822385BB0895843411F08436D1F522B3FB
S113017081E090E002C0880F991F6A95E2F78095AC
S1130180822382BB0895413061F5823411F08236B6
S113019059F428B381E090E002C0880F991F6A9552
S11301A0E2F7822B88BB0895833411F0833659F427
S11301B025B381E090E002C0880F991F6A95E2F7A9
S11301C0822B85BB0895843411F0843651F422B314
S11301D081E090E002C0880F991F6A95E2F7822BB4
S11301E082BB0895823411F08236A9F446B381E0CB
S11301F090E09C01062E02C0220F331F0A94E2F7FE
S1130200842F90E08223932302C0959587956A9565
S1130210E2F7982F31C0833411F08336A9F443B345
S113022081E090E09C01062E02C0220F331F0A9445
S1130230E2F7842F90E08223932302C0959587955B
S11302406A95E2F7982F18C0843411F08436A1F42B
S113025040B381E090E09C01062E02C0220F331FC0
S11302600A94E2F7842F90E08223932302C09595A9
S113027087956A95E2F7982F892F08951F920F9218
S11302800FB60F9211242F933F934F935F936F9365
S11302907F938F939F93AF93BF93EF93FF9380913B
S11302A062009091630001969093630080936200D2
S11302B063E084E497DF811109C08091600090912C
S11302C06100019690936100809360008EEF82BF7D
S11302D0FF91EF91BF91AF919F918F917F916F911A
S11302E05F914F913F912F910F900FBE0F901F90F0
S11302F01895CF93C82F62E084E474DF8C1749F01B
S113030087E893E10197F1F700C0000062E084E41C
S113031069DFCF9108958130F1F580916200909169
S11303206300049724F0109263001092620080919D
S11303306200909163008130910599F01CF4892B3F
S113034039F0089582309105A9F00397E1F00895FA
S113035040E067E084E4E5DE41E064E084E4E1DE7B
S1130360089540E064E084E4DCDE41E065E084E498
S1130370D8DE089540E065E084E4D3DE41E066E041
S113038084E4CFDE089540E066E084E4CADE41E020
S113039067E084E4C6DE089540E062E084E454DE6D
S11303A040E063E084E450DE41E060E083E44CDE5E
S11303B041E061E083E448DE41E062E083E444DE5E
S11303C041E065E083E440DE41E064E084E43CDE57
S11303D041E065E084E438DE41E066E084E434DE54
S11303E041E067E084E430DE40E064E084E499DEE8
S11303F040E065E084E495DE40E066E084E491DE7C
S113040040E067E084E48DDE89B7816089BF789439
S113041010E0D1E001C0DC2F8D2F6BDFC82F8111DC
S11304200EC0D13061F481E01827113041F48EEF11
S113043082BF83B7887F83BF83B7856083BF63E050
S113044084E4D0DE2091600030916100283833418B
S113045041F493B7987F93BF1092610010926000AB
S113046010E0111113C040E060E083E65ADE40E082
S113047061E083E656DE40E062E083E652DE40E07F
S113048065E083E64EDE80E046DFC5CF113019F625
S113049081110FC040E060E083E643DE41E062E0AA
S11304A083E63FDE41E065E083E63BDE81E033DF67
S11304B0B2CF813009F0AFCF41E060E083E631DEB6
S11304C040E062E083E62DDE40E065E083E629DE7D
S10D04D080E021DFA0CFF894FFCFF5
S9030000FC
